8=FIX.4.4|9=76|35=A|34=1|49=CLIENT1|52=20170111-08:07:41.552|56=EXECUTOR|98=0|108=30|141=Y|10=140|8=FIX.4.4|9=58|35=0|34=2|49=CLIENT1|52=20170111-08:08:11.974|56=EXECUTOR|10=060|8=FIX.4.4|9=132|35=D|34=3|49=CLIENT1|52=20170111-08:08:36.631|56=EXECUTOR|11=MFM02:08:36.6115745|38=-1000|40=1|54=2|55=MFM|60=20170111-02:08:36.611|10=207|8=FIX.4.4|9=132|35=D|34=4|49=CLIENT1|52=20170111-08:08:37.338|56=EXECUTOR|11=MFM02:08:37.3186064|38=-1000|40=1|54=2|55=MFM|60=20170111-02:08:37.318|10=218|8=FIX.4.4|9=132|35=D|34=5|49=CLIENT1|52=20170111-08:09:02.772|56=EXECUTOR|11=MFM02:09:02.7592923|38=-1000|40=1|54=2|55=MFM|60=20170111-02:09:02.759|10=218|8=FIX.4.4|9=132|35=D|34=6|49=CLIENT1|52=20170111-08:09:04.627|56=EXECUTOR|11=MFM02:09:04.5936021|38=-1000|40=1|54=2|55=MFM|60=20170111-02:09:04.593|10=209|8=FIX.4.4|9=132|35=D|34=7|49=CLIENT1|52=20170111-08:09:05.269|56=EXECUTOR|11=MFM02:09:05.2486459|38=-1000|40=1|54=2|55=MFM|60=20170111-02:09:05.248|10=224|8=FIX.4.4|9=58|35=0|34=8|49=CLIENT1|52=20170111-08:09:35.704|56=EXECUTOR|10=064|8=FIX.4.4|9=58|35=0|34=9|49=CLIENT1|52=20170111-08:10:06.399|56=EXECUTOR|10=065|8=FIX.4.4|9=59|35=0|34=10|49=CLIENT1|52=20170111-08:10:36.438|56=EXECUTOR|10=103|8=FIX.4.4|9=59|35=0|34=11|49=CLIENT1|52=20170111-08:11:06.903|56=EXECUTOR|10=099|8=FIX.4.4|9=59|35=0|34=12|49=CLIENT1|52=20170111-08:11:37.692|56=EXECUTOR|10=109|8=FIX.4.4|9=59|35=0|34=13|49=CLIENT1|52=20170111-08:12:08.105|56=EXECUTOR|10=098|8=FIX.4.4|9=133|35=D|34=14|49=CLIENT1|52=20170111-08:12:29.179|56=EXECUTOR|11=MFM02:12:29.1647123|38=-1000|40=1|54=2|55=MFM|60=20170111-02:12:29.164|10=254|8=FIX.4.4|9=133|35=D|34=15|49=CLIENT1|52=20170111-08:12:30.523|56=EXECUTOR|11=MFM02:12:30.4303582|38=-1000|40=1|54=2|55=MFM|60=20170111-02:12:30.431|10=222|8=FIX.4.4|9=133|35=D|34=16|49=CLIENT1|52=20170111-08:12:31.719|56=EXECUTOR|11=MFM02:12:31.6765632|38=-1000|40=1|54=2|55=MFM|60=20170111-02:12:31.676|10=254|8=FIX.4.4|9=133|35=D|34=17|49=CLIENT1|52=20170111-08:12:33.007|56=EXECUTOR|11=MFM02:12:32.9835761|38=-1000|40=1|54=2|55=MFM|60=20170111-02:12:32.983|10=254|8=FIX.4.4|9=133|35=D|34=18|49=CLIENT1|52=20170111-08:12:34.924|56=EXECUTOR|11=MFM02:12:34.9113086|38=-1000|40=1|54=2|55=MFM|60=20170111-02:12:34.911|10=248|8=FIX.4.4|9=133|35=D|34=19|49=CLIENT1|52=20170111-08:12:36.777|56=EXECUTOR|11=MFM02:12:36.7596723|38=-1000|40=1|54=2|55=MFM|60=20170111-02:12:36.759|10=026|8=FIX.4.4|9=133|35=D|34=20|49=CLIENT1|52=20170111-08:12:38.620|56=EXECUTOR|11=MFM02:12:38.6014334|38=-1000|40=1|54=2|55=MFM|60=20170111-02:12:38.601|10=235|8=FIX.4.4|9=133|35=D|34=21|49=CLIENT1|52=20170111-08:12:40.490|56=EXECUTOR|11=MFM02:12:40.4753202|38=-1000|40=1|54=2|55=MFM|60=20170111-02:12:40.475|10=231|8=FIX.4.4|9=133|35=D|34=22|49=CLIENT1|52=20170111-08:12:42.376|56=EXECUTOR|11=MFM02:12:42.3610986|38=-1000|40=1|54=2|55=MFM|60=20170111-02:12:42.361|10=245|8=FIX.4.4|9=133|35=D|34=23|49=CLIENT1|52=20170111-08:12:44.251|56=EXECUTOR|11=MFM02:12:44.2386569|38=-1000|40=1|54=2|55=MFM|60=20170111-02:12:44.238|10=253|8=FIX.4.4|9=133|35=D|34=24|49=CLIENT1|52=20170111-08:12:45.215|56=EXECUTOR|11=MFM02:12:45.2005099|38=-1000|40=1|54=2|55=MFM|60=20170111-02:12:45.200|10=232|8=FIX.4.4|9=132|35=D|34=25|49=CLIENT1|52=20170111-08:12:46.128|56=EXECUTOR|11=MFM02:12:46.1109477|38=1000|40=1|54=1|55=MFM|60=20170111-02:12:46.110|10=196|8=FIX.4.4|9=133|35=D|34=26|49=CLIENT1|52=20170111-08:12:47.101|56=EXECUTOR|11=MFM02:12:47.0756341|38=-3000|40=1|54=2|55=MFM|60=20170111-02:12:47.075|10=247|8=FIX.4.4|9=133|35=D|34=27|49=CLIENT1|52=20170111-08:12:48.037|56=EXECUTOR|11=MFM02:12:47.9988583|38=-1000|40=1|54=2|55=MFM|60=20170111-02:12:47.998|10=037|8=FIX.4.4|9=133|35=D|34=28|49=CLIENT1|52=20170111-08:12:49.335|56=EXECUTOR|11=MFM02:12:49.2836864|38=-1000|40=1|54=2|55=MFM|60=20170111-02:12:49.283|10=018|8=FIX.4.4|9=133|35=D|34=29|49=CLIENT1|52=20170111-08:12:50.515|56=EXECUTOR|11=MFM02:12:50.4987558|38=-1000|40=1|54=2|55=MFM|60=20170111-02:12:50.498|10=012|8=FIX.4.4|9=133|35=D|34=30|49=CLIENT1|52=20170111-08:12:51.852|56=EXECUTOR|11=MFM02:12:51.8247213|38=-1000|40=1|54=2|55=MFM|60=20170111-02:12:51.824|10=241|8=FIX.4.4|9=133|35=D|34=31|49=CLIENT1|52=20170111-08:12:53.084|56=EXECUTOR|11=MFM02:12:53.0639692|38=-1000|40=1|54=2|55=MFM|60=20170111-02:12:53.063|10=248|8=FIX.4.4|9=133|35=D|34=32|49=CLIENT1|52=20170111-08:12:54.354|56=EXECUTOR|11=MFM02:12:54.3371764|38=-1000|40=1|54=2|55=MFM|60=20170111-02:12:54.337|10=252|8=FIX.4.4|9=133|35=D|34=33|49=CLIENT1|52=20170111-08:12:55.112|56=EXECUTOR|11=MFM02:12:55.0946362|38=-1000|40=1|54=2|55=MFM|60=20170111-02:12:55.094|10=247|8=FIX.4.4|9=133|35=D|34=34|49=CLIENT1|52=20170111-08:12:55.805|56=EXECUTOR|11=MFM02:12:55.7882112|38=-1000|40=1|54=2|55=MFM|60=20170111-02:12:55.788|10=010|8=FIX.4.4|9=132|35=D|34=35|49=CLIENT1|52=20170111-08:12:57.658|56=EXECUTOR|11=MFM02:12:57.6438055|38=1000|40=1|54=1|55=MFM|60=20170111-02:12:57.643|10=224|8=FIX.4.4|9=133|35=D|34=36|49=CLIENT1|52=20170111-08:12:59.532|56=EXECUTOR|11=MFM02:12:59.5096834|38=-1000|40=1|54=2|55=MFM|60=20170111-02:12:59.509|10=018|8=FIX.4.4|9=133|35=D|34=37|49=CLIENT1|52=20170111-08:13:00.474|56=EXECUTOR|11=MFM02:13:00.4598578|38=-1000|40=1|54=2|55=MFM|60=20170111-02:13:00.459|10=000|8=FIX.4.4|9=133|35=D|34=38|49=CLIENT1|52=20170111-08:13:01.443|56=EXECUTOR|11=MFM02:13:01.4166844|38=-1000|40=1|54=2|55=MFM|60=20170111-02:13:01.416|10=236|8=FIX.4.4|9=133|35=D|34=39|49=CLIENT1|52=20170111-08:13:02.412|56=EXECUTOR|11=MFM02:13:02.3954819|38=-1000|40=1|54=2|55=MFM|60=20170111-02:13:02.395|10=248|8=FIX.4.4|9=133|35=D|34=40|49=CLIENT1|52=20170111-08:13:03.432|56=EXECUTOR|11=MFM02:13:03.4091701|38=-1000|40=1|54=2|55=MFM|60=20170111-02:13:03.409|10=224|8=FIX.4.4|9=133|35=D|34=41|49=CLIENT1|52=20170111-08:13:05.446|56=EXECUTOR|11=MFM02:13:05.4297688|38=-1000|40=1|54=2|55=MFM|60=20170111-02:13:05.429|10=004|8=FIX.4.4|9=133|35=D|34=42|49=CLIENT1|52=20170111-08:13:07.370|56=EXECUTOR|11=MFM02:13:07.3531994|38=-1000|40=1|54=2|55=MFM|60=20170111-02:13:07.353|10=249|8=FIX.4.4|9=133|35=D|34=43|49=CLIENT1|52=20170111-08:13:09.245|56=EXECUTOR|11=MFM02:13:09.2302662|38=-1000|40=1|54=2|55=MFM|60=20170111-02:13:09.230|10=238|8=FIX.4.4|9=133|35=D|34=44|49=CLIENT1|52=20170111-08:13:11.111|56=EXECUTOR|11=MFM02:13:11.0908967|38=-3000|40=1|54=2|55=MFM|60=20170111-02:13:11.090|10=234|8=FIX.4.4|9=133|35=D|34=45|49=CLIENT1|52=20170111-08:13:12.672|56=EXECUTOR|11=MFM02:13:12.6361755|38=-1000|40=1|54=2|55=MFM|60=20170111-02:13:12.636|10=248|8=FIX.4.4|9=133|35=D|34=46|49=CLIENT1|52=20170111-08:13:14.201|56=EXECUTOR|11=MFM02:13:14.1856061|38=-1000|40=1|54=2|55=MFM|60=20170111-02:13:14.185|10=236|8=FIX.4.4|9=133|35=D|34=47|49=CLIENT1|52=20170111-08:13:15.797|56=EXECUTOR|11=MFM02:13:15.7783899|38=-1000|40=1|54=2|55=MFM|60=20170111-02:13:15.778|10=036|8=FIX.4.4|9=133|35=D|34=48|49=CLIENT1|52=20170111-08:13:17.330|56=EXECUTOR|11=MFM02:13:17.3145634|38=-1000|40=1|54=2|55=MFM|60=20170111-02:13:17.314|10=243|8=FIX.4.4|9=133|35=D|34=49|49=CLIENT1|52=20170111-08:13:19.074|56=EXECUTOR|11=MFM02:13:19.0506337|38=-1000|40=1|54=2|55=MFM|60=20170111-02:13:19.050|10=250|8=FIX.4.4|9=133|35=D|34=50|49=CLIENT1|52=20170111-08:13:20.623|56=EXECUTOR|11=MFM02:13:20.5976325|38=-1000|40=1|54=2|55=MFM|60=20170111-02:13:20.597|10=247|8=FIX.4.4|9=133|35=D|34=51|49=CLIENT1|52=20170111-08:13:22.213|56=EXECUTOR|11=MFM02:13:22.1941937|38=-1000|40=1|54=2|55=MFM|60=20170111-02:13:22.194|10=239|8=FIX.4.4|9=133|35=D|34=52|49=CLIENT1|52=20170111-08:13:23.729|56=EXECUTOR|11=MFM02:13:23.7137530|38=-1000|40=1|54=2|55=MFM|60=20170111-02:13:23.713|10=244|8=FIX.4.4|9=133|35=D|34=53|49=CLIENT1|52=20170111-08:13:25.349|56=EXECUTOR|11=MFM02:13:25.3284910|38=-1000|40=1|54=2|55=MFM|60=20170111-02:13:25.328|10=252|8=FIX.4.4|9=133|35=D|34=54|49=CLIENT1|52=20170111-08:13:25.751|56=EXECUTOR|11=MFM02:13:25.7371780|38=-1000|40=1|54=2|55=MFM|60=20170111-02:13:25.737|10=004|8=FIX.4.4|9=133|35=D|34=55|49=CLIENT1|52=20170111-08:13:26.160|56=EXECUTOR|11=MFM02:13:26.1411330|38=-1000|40=1|54=2|55=MFM|60=20170111-02:13:26.141|10=227|8=FIX.4.4|9=133|35=D|34=56|49=CLIENT1|52=20170111-08:13:28.035|56=EXECUTOR|11=MFM02:13:28.0188013|38=-1000|40=1|54=2|55=MFM|60=20170111-02:13:28.018|10=246|8=FIX.4.4|9=133|35=D|34=57|49=CLIENT1|52=20170111-08:13:29.875|56=EXECUTOR|11=MFM02:13:29.8584842|38=-1000|40=1|54=2|55=MFM|60=20170111-02:13:29.858|10=036|8=FIX.4.4|9=133|35=D|34=58|49=CLIENT1|52=20170111-08:13:31.852|56=EXECUTOR|11=MFM02:13:31.8354502|38=-1000|40=1|54=2|55=MFM|60=20170111-02:13:31.835|10=250|8=FIX.4.4|9=133|35=D|34=59|49=CLIENT1|52=20170111-08:13:33.726|56=EXECUTOR|11=MFM02:13:33.7092543|38=-1000|40=1|54=2|55=MFM|60=20170111-02:13:33.709|10=004|8=FIX.4.4|9=133|35=D|34=60|49=CLIENT1|52=20170111-08:13:34.430|56=EXECUTOR|11=MFM02:13:34.4139624|38=-1000|40=1|54=2|55=MFM|60=20170111-02:13:34.413|10=238|8=FIX.4.4|9=133|35=D|34=61|49=CLIENT1|52=20170111-08:13:35.193|56=EXECUTOR|11=MFM02:13:35.1778408|38=-1000|40=1|54=2|55=MFM|60=20170111-02:13:35.177|10=005|8=FIX.4.4|9=133|35=D|34=62|49=CLIENT1|52=20170111-08:13:35.882|56=EXECUTOR|11=MFM02:13:35.8572182|38=-1000|40=1|54=2|55=MFM|60=20170111-02:13:35.857|10=014|8=FIX.4.4|9=133|35=D|34=63|49=CLIENT1|52=20170111-08:13:37.427|56=EXECUTOR|11=MFM02:13:37.4129528|38=-1000|40=1|54=2|55=MFM|60=20170111-02:13:37.412|10=001|8=FIX.4.4|9=133|35=D|34=64|49=CLIENT1|52=20170111-08:13:39.094|56=EXECUTOR|11=MFM02:13:39.0798469|38=-1000|40=1|54=2|55=MFM|60=20170111-02:13:39.079|10=029|8=FIX.4.4|9=133|35=D|34=65|49=CLIENT1|52=20170111-08:13:40.640|56=EXECUTOR|11=MFM02:13:40.6234586|38=-1000|40=1|54=2|55=MFM|60=20170111-02:13:40.623|10=245|8=FIX.4.4|9=133|35=D|34=66|49=CLIENT1|52=20170111-08:13:42.210|56=EXECUTOR|11=MFM02:13:42.1950724|38=-1000|40=1|54=2|55=MFM|60=20170111-02:13:42.195|10=243|8=FIX.4.4|9=133|35=D|34=67|49=CLIENT1|52=20170111-08:13:43.774|56=EXECUTOR|11=MFM02:13:43.7608309|38=-1000|40=1|54=2|55=MFM|60=20170111-02:13:43.760|10=009|8=FIX.4.4|9=133|35=D|34=68|49=CLIENT1|52=20170111-08:13:45.374|56=EXECUTOR|11=MFM02:13:45.3277715|38=-1000|40=1|54=2|55=MFM|60=20170111-02:13:45.327|10=010|8=FIX.4.4|9=133|35=D|34=69|49=CLIENT1|52=20170111-08:13:46.917|56=EXECUTOR|11=MFM02:13:46.9021479|38=-1000|40=1|54=2|55=MFM|60=20170111-02:13:46.902|10=016|8=FIX.4.4|9=133|35=D|34=70|49=CLIENT1|52=20170111-08:13:48.443|56=EXECUTOR|11=MFM02:13:48.4287361|38=-1000|40=1|54=2|55=MFM|60=20170111-02:13:48.428|10=010|8=FIX.4.4|9=133|35=D|34=71|49=CLIENT1|52=20170111-08:13:49.204|56=EXECUTOR|11=MFM02:13:49.1880948|38=-1000|40=1|54=2|55=MFM|60=20170111-02:13:49.188|10=019|8=FIX.4.4|9=133|35=D|34=72|49=CLIENT1|52=20170111-08:13:49.895|56=EXECUTOR|11=MFM02:13:49.8730546|38=-1000|40=1|54=2|55=MFM|60=20170111-02:13:49.873|10=032|8=FIX.4.4|9=133|35=D|34=73|49=CLIENT1|52=20170111-08:13:50.582|56=EXECUTOR|11=MFM02:13:50.5525806|38=-1000|40=1|54=2|55=MFM|60=20170111-02:13:50.552|10=250|8=FIX.4.4|9=133|35=D|34=74|49=CLIENT1|52=20170111-08:13:51.339|56=EXECUTOR|11=MFM02:13:51.3055522|38=-1000|40=1|54=2|55=MFM|60=20170111-02:13:51.305|10=241|8=FIX.4.4|9=133|35=D|34=75|49=CLIENT1|52=20170111-08:13:52.116|56=EXECUTOR|11=MFM02:13:52.0952786|38=-1000|40=1|54=2|55=MFM|60=20170111-02:13:52.095|10=003|8=FIX.4.4|9=133|35=D|34=76|49=CLIENT1|52=20170111-08:13:52.791|56=EXECUTOR|11=MFM02:13:52.7740193|38=-1000|40=1|54=2|55=MFM|60=20170111-02:13:52.774|10=011|8=FIX.4.4|9=133|35=D|34=77|49=CLIENT1|52=20170111-08:13:54.320|56=EXECUTOR|11=MFM02:13:54.3016079|38=-1000|40=1|54=2|55=MFM|60=20170111-02:13:54.301|10=243|8=FIX.4.4|9=133|35=D|34=78|49=CLIENT1|52=20170111-08:13:56.174|56=EXECUTOR|11=MFM02:13:56.1503475|38=-1000|40=1|54=2|55=MFM|60=20170111-02:13:56.150|10=002|8=FIX.4.4|9=133|35=D|34=79|49=CLIENT1|52=20170111-08:13:58.048|56=EXECUTOR|11=MFM02:13:58.0322089|38=-1000|40=1|54=2|55=MFM|60=20170111-02:13:58.032|10=007|8=FIX.4.4|9=133|35=D|34=80|49=CLIENT1|52=20170111-08:13:59.902|56=EXECUTOR|11=MFM02:13:59.8876780|38=-1000|40=1|54=2|55=MFM|60=20170111-02:13:59.887|10=039|8=FIX.4.4|9=133|35=D|34=81|49=CLIENT1|52=20170111-08:14:01.783|56=EXECUTOR|11=MFM02:14:01.7693392|38=-1000|40=1|54=2|55=MFM|60=20170111-02:14:01.769|10=005|8=FIX.4.4|9=133|35=D|34=82|49=CLIENT1|52=20170111-08:14:03.663|56=EXECUTOR|11=MFM02:14:03.6401501|38=-1000|40=1|54=2|55=MFM|60=20170111-02:14:03.640|10=231|8=FIX.4.4|9=133|35=D|34=83|49=CLIENT1|52=20170111-08:14:05.838|56=EXECUTOR|11=MFM02:14:05.8229460|38=-1000|40=1|54=2|55=MFM|60=20170111-02:14:05.822|10=002|8=FIX.4.4|9=133|35=D|34=84|49=CLIENT1|52=20170111-08:14:08.048|56=EXECUTOR|11=MFM02:14:08.0325559|38=-1000|40=1|54=2|55=MFM|60=20170111-02:14:08.032|10=252|8=FIX.4.4|9=133|35=D|34=85|49=CLIENT1|52=20170111-08:14:10.226|56=EXECUTOR|11=MFM02:14:10.2132037|38=-1000|40=1|54=2|55=MFM|60=20170111-02:14:10.213|10=220|8=FIX.4.4|9=133|35=D|34=86|49=CLIENT1|52=20170111-08:14:11.527|56=EXECUTOR|11=MFM02:14:11.5082839|38=-1000|40=1|54=2|55=MFM|60=20170111-02:14:11.508|10=252|8=FIX.4.4|9=133|35=D|34=87|49=CLIENT1|52=20170111-08:14:13.736|56=EXECUTOR|11=MFM02:14:13.7076553|38=-1000|40=1|54=2|55=MFM|60=20170111-02:14:13.707|10=004|8=FIX.4.4|9=133|35=D|34=88|49=CLIENT1|52=20170111-08:14:15.903|56=EXECUTOR|11=MFM02:14:15.8884457|38=-1000|40=1|54=2|55=MFM|60=20170111-02:14:15.888|10=028|8=FIX.4.4|9=133|35=D|34=89|49=CLIENT1|52=20170111-08:14:18.120|56=EXECUTOR|11=MFM02:14:18.0860220|38=-1000|40=1|54=2|55=MFM|60=20170111-02:14:18.086|10=249|8=FIX.4.4|9=133|35=D|34=90|49=CLIENT1|52=20170111-08:14:19.370|56=EXECUTOR|11=MFM02:14:19.3453229|38=-1000|40=1|54=2|55=MFM|60=20170111-02:14:19.345|10=003|8=FIX.4.4|9=133|35=D|34=91|49=CLIENT1|52=20170111-08:14:20.669|56=EXECUTOR|11=MFM02:14:20.6428004|38=-1000|40=1|54=2|55=MFM|60=20170111-02:14:20.642|10=243|8=FIX.4.4|9=133|35=D|34=92|49=CLIENT1|52=20170111-08:14:22.108|56=EXECUTOR|11=MFM02:14:22.0833752|38=-1000|40=1|54=2|55=MFM|60=20170111-02:14:22.083|10=241|8=FIX.4.4|9=133|35=D|34=93|49=CLIENT1|52=20170111-08:14:23.402|56=EXECUTOR|11=MFM02:14:23.3881117|38=-1000|40=1|54=2|55=MFM|60=20170111-02:14:23.388|10=251|8=FIX.4.4|9=133|35=D|34=94|49=CLIENT1|52=20170111-08:14:25.604|56=EXECUTOR|11=MFM02:14:25.5859999|38=-1000|40=1|54=2|55=MFM|60=20170111-02:14:25.585|10=030|8=FIX.4.4|9=133|35=D|34=95|49=CLIENT1|52=20170111-08:14:27.790|56=EXECUTOR|11=MFM02:14:27.7667170|38=-1000|40=1|54=2|55=MFM|60=20170111-02:14:27.766|10=024|8=FIX.4.4|9=133|35=D|34=96|49=CLIENT1|52=20170111-08:14:30.018|56=EXECUTOR|11=MFM02:14:29.9994155|38=-1000|40=1|54=2|55=MFM|60=20170111-02:14:29.999|10=032|8=FIX.4.4|9=133|35=D|34=97|49=CLIENT1|52=20170111-08:14:30.907|56=EXECUTOR|11=MFM02:14:30.8922720|38=-1000|40=1|54=2|55=MFM|60=20170111-02:14:30.892|10=004|8=FIX.4.4|9=133|35=D|34=98|49=CLIENT1|52=20170111-08:14:31.883|56=EXECUTOR|11=MFM02:14:31.8593383|38=-1000|40=1|54=2|55=MFM|60=20170111-02:14:31.859|10=023|8=FIX.4.4|9=133|35=D|34=99|49=CLIENT1|52=20170111-08:14:32.780|56=EXECUTOR|11=MFM02:14:32.7656543|38=-1000|40=1|54=2|55=MFM|60=20170111-02:14:32.765|10=016|8=FIX.4.4|9=134|35=D|34=100|49=CLIENT1|52=20170111-08:14:48.077|56=EXECUTOR|11=MFM02:14:48.0548166|38=-1000|40=1|54=2|55=MFM|60=20170111-02:14:48.054|10=053|8=FIX.4.4|9=134|35=D|34=101|49=CLIENT1|52=20170111-08:14:49.950|56=EXECUTOR|11=MFM02:14:49.9358235|38=-1000|40=1|54=2|55=MFM|60=20170111-02:14:49.935|10=070|8=FIX.4.4|9=134|35=D|34=102|49=CLIENT1|52=20170111-08:14:55.400|56=EXECUTOR|11=MFM02:14:55.3823132|38=-1000|40=1|54=2|55=MFM|60=20170111-02:14:55.382|10=035|8=FIX.4.4|9=134|35=D|34=103|49=CLIENT1|52=20170111-08:14:55.920|56=EXECUTOR|11=MFM02:14:55.9002038|38=-1000|40=1|54=2|55=MFM|60=20170111-02:14:55.900|10=039|8=FIX.4.4|9=134|35=D|34=104|49=CLIENT1|52=20170111-08:15:13.477|56=EXECUTOR|11=MFM02:15:13.4598642|38=-1000|40=1|54=2|55=MFM|60=20170111-02:15:13.459|10=057|8=FIX.4.4|9=134|35=D|34=105|49=CLIENT1|52=20170111-08:15:15.389|56=EXECUTOR|11=MFM02:15:15.3539423|38=-1000|40=1|54=2|55=MFM|60=20170111-02:15:15.353|10=050|8=FIX.4.4|9=134|35=D|34=106|49=CLIENT1|52=20170111-08:15:17.244|56=EXECUTOR|11=MFM02:15:17.2202833|38=-1000|40=1|54=2|55=MFM|60=20170111-02:15:17.220|10=031|8=FIX.4.4|9=134|35=D|34=107|49=CLIENT1|52=20170111-08:15:19.121|56=EXECUTOR|11=MFM02:15:19.1000550|38=-1000|40=1|54=2|55=MFM|60=20170111-02:15:19.100|10=020|8=FIX.4.4|9=60|35=0|34=108|49=CLIENT1|52=20170111-08:15:49.497|56=EXECUTOR|10=165|8=FIX.4.4|9=60|35=0|34=109|49=CLIENT1|52=20170111-08:16:19.737|56=EXECUTOR|10=161|