8=FIX.4.4|9=76|35=A|34=1|49=CLIENT1|52=20170113-08:23:11.116|56=EXECUTOR|98=0|108=30|141=Y|10=133|8=FIX.4.4|9=58|35=0|34=2|49=CLIENT1|52=20170113-08:23:41.244|56=EXECUTOR|10=052|8=FIX.4.4|9=58|35=0|34=3|49=CLIENT1|52=20170113-08:24:11.677|56=EXECUTOR|10=061|8=FIX.4.4|9=58|35=0|34=4|49=CLIENT1|52=20170113-08:24:41.849|56=EXECUTOR|10=066|8=FIX.4.4|9=58|35=0|34=5|49=CLIENT1|52=20170113-08:25:11.852|56=EXECUTOR|10=059|8=FIX.4.4|9=58|35=0|34=6|49=CLIENT1|52=20170113-08:25:42.021|56=EXECUTOR|10=052|8=FIX.4.4|9=58|35=0|34=7|49=CLIENT1|52=20170113-08:26:12.152|56=EXECUTOR|10=056|8=FIX.4.4|9=58|35=0|34=8|49=CLIENT1|52=20170113-08:26:42.691|56=EXECUTOR|10=068|8=FIX.4.4|9=58|35=0|34=9|49=CLIENT1|52=20170113-08:27:13.375|56=EXECUTOR|10=067|8=FIX.4.4|9=59|35=0|34=10|49=CLIENT1|52=20170113-08:27:43.494|56=EXECUTOR|10=113|8=FIX.4.4|9=59|35=0|34=11|49=CLIENT1|52=20170113-08:28:13.970|56=EXECUTOR|10=111|8=FIX.4.4|9=59|35=0|34=12|49=CLIENT1|52=20170113-08:28:44.306|56=EXECUTOR|10=109|8=FIX.4.4|9=59|35=0|34=13|49=CLIENT1|52=20170113-08:29:15.202|56=EXECUTOR|10=104|8=FIX.4.4|9=59|35=0|34=14|49=CLIENT1|52=20170113-08:29:46.170|56=EXECUTOR|10=113|8=FIX.4.4|9=59|35=0|34=15|49=CLIENT1|52=20170113-08:30:16.836|56=EXECUTOR|10=112|8=FIX.4.4|9=59|35=0|34=16|49=CLIENT1|52=20170113-08:30:47.201|56=EXECUTOR|10=103|8=FIX.4.4|9=59|35=0|34=17|49=CLIENT1|52=20170113-08:31:17.312|56=EXECUTOR|10=105|8=FIX.4.4|9=59|35=0|34=18|49=CLIENT1|52=20170113-08:31:47.323|56=EXECUTOR|10=111|8=FIX.4.4|9=59|35=0|34=19|49=CLIENT1|52=20170113-08:32:17.584|56=EXECUTOR|10=119|8=FIX.4.4|9=59|35=0|34=20|49=CLIENT1|52=20170113-08:32:48.003|56=EXECUTOR|10=101|8=FIX.4.4|9=59|35=0|34=21|49=CLIENT1|52=20170113-08:33:18.940|56=EXECUTOR|10=110|8=FIX.4.4|9=59|35=0|34=22|49=CLIENT1|52=20170113-08:33:49.116|56=EXECUTOR|10=110|8=FIX.4.4|9=59|35=0|34=23|49=CLIENT1|52=20170113-08:34:20.015|56=EXECUTOR|10=099|8=FIX.4.4|9=59|35=0|34=24|49=CLIENT1|52=20170113-08:34:50.341|56=EXECUTOR|10=105|8=FIX.4.4|9=59|35=0|34=25|49=CLIENT1|52=20170113-08:35:20.394|56=EXECUTOR|10=112|8=FIX.4.4|9=59|35=0|34=26|49=CLIENT1|52=20170113-08:35:50.820|56=EXECUTOR|10=110|8=FIX.4.4|9=59|35=0|34=27|49=CLIENT1|52=20170113-08:36:21.407|56=EXECUTOR|10=111|8=FIX.4.4|9=59|35=0|34=28|49=CLIENT1|52=20170113-08:36:51.805|56=EXECUTOR|10=117|8=FIX.4.4|9=59|35=0|34=29|49=CLIENT1|52=20170113-08:37:22.217|56=EXECUTOR|10=114|8=FIX.4.4|9=59|35=0|34=30|49=CLIENT1|52=20170113-08:37:52.700|56=EXECUTOR|10=106|8=FIX.4.4|9=59|35=0|34=31|49=CLIENT1|52=20170113-08:38:22.944|56=EXECUTOR|10=115|8=FIX.4.4|9=59|35=0|34=32|49=CLIENT1|52=20170113-08:38:53.262|56=EXECUTOR|10=113|8=FIX.4.4|9=59|35=0|34=33|49=CLIENT1|52=20170113-08:39:24.152|56=EXECUTOR|10=111|8=FIX.4.4|9=59|35=0|34=34|49=CLIENT1|52=20170113-08:39:54.383|56=EXECUTOR|10=121|8=FIX.4.4|9=59|35=0|34=35|49=CLIENT1|52=20170113-08:40:24.554|56=EXECUTOR|10=111|8=FIX.4.4|9=59|35=0|34=36|49=CLIENT1|52=20170113-08:40:55.322|56=EXECUTOR|10=109|8=FIX.4.4|9=59|35=0|34=37|49=CLIENT1|52=20170113-08:41:25.677|56=EXECUTOR|10=121|8=FIX.4.4|9=59|35=0|34=38|49=CLIENT1|52=20170113-08:41:56.450|56=EXECUTOR|10=115|8=FIX.4.4|9=59|35=0|34=39|49=CLIENT1|52=20170113-08:42:26.647|56=EXECUTOR|10=122|8=FIX.4.4|9=59|35=0|34=40|49=CLIENT1|52=20170113-08:42:57.091|56=EXECUTOR|10=111|8=FIX.4.4|9=59|35=0|34=41|49=CLIENT1|52=20170113-08:43:27.117|56=EXECUTOR|10=109|8=FIX.4.4|9=59|35=0|34=42|49=CLIENT1|52=20170113-08:43:57.204|56=EXECUTOR|10=110|8=FIX.4.4|9=59|35=0|34=43|49=CLIENT1|52=20170113-08:44:27.753|56=EXECUTOR|10=118|8=FIX.4.4|9=59|35=0|34=44|49=CLIENT1|52=20170113-08:44:58.049|56=EXECUTOR|10=121|8=FIX.4.4|9=59|35=0|34=45|49=CLIENT1|52=20170113-08:45:28.372|56=EXECUTOR|10=119|8=FIX.4.4|9=59|35=0|34=46|49=CLIENT1|52=20170113-08:45:58.669|56=EXECUTOR|10=132|8=FIX.4.4|9=59|35=0|34=47|49=CLIENT1|52=20170113-08:46:29.690|56=EXECUTOR|10=126|8=FIX.4.4|9=59|35=0|34=48|49=CLIENT1|52=20170113-08:47:00.260|56=EXECUTOR|10=110|8=FIX.4.4|9=59|35=0|34=49|49=CLIENT1|52=20170113-08:47:30.355|56=EXECUTOR|10=119|8=FIX.4.4|9=59|35=0|34=50|49=CLIENT1|52=20170113-08:48:00.458|56=EXECUTOR|10=113|8=FIX.4.4|9=59|35=0|34=51|49=CLIENT1|52=20170113-08:48:31.219|56=EXECUTOR|10=113|8=FIX.4.4|9=59|35=0|34=52|49=CLIENT1|52=20170113-08:49:01.456|56=EXECUTOR|10=115|8=FIX.4.4|9=59|35=0|34=53|49=CLIENT1|52=20170113-08:49:31.476|56=EXECUTOR|10=121|8=FIX.4.4|9=59|35=0|34=54|49=CLIENT1|52=20170113-08:50:01.973|56=EXECUTOR|10=113|8=FIX.4.4|9=59|35=0|34=55|49=CLIENT1|52=20170113-08:50:32.770|56=EXECUTOR|10=113|8=FIX.4.4|9=59|35=0|34=56|49=CLIENT1|52=20170113-08:51:03.443|56=EXECUTOR|10=110|8=FIX.4.4|9=59|35=0|34=57|49=CLIENT1|52=20170113-08:51:33.585|56=EXECUTOR|10=121|8=FIX.4.4|9=59|35=0|34=58|49=CLIENT1|52=20170113-08:52:03.587|56=EXECUTOR|10=122|8=FIX.4.4|9=59|35=0|34=59|49=CLIENT1|52=20170113-08:52:33.610|56=EXECUTOR|10=113|8=FIX.4.4|9=59|35=0|34=60|49=CLIENT1|52=20170113-08:53:03.743|56=EXECUTOR|10=110|8=FIX.4.4|9=59|35=0|34=61|49=CLIENT1|52=20170113-08:53:33.793|56=EXECUTOR|10=119|8=FIX.4.4|9=59|35=0|34=62|49=CLIENT1|52=20170113-08:54:04.569|56=EXECUTOR|10=120|8=FIX.4.4|9=59|35=0|34=63|49=CLIENT1|52=20170113-08:54:35.021|56=EXECUTOR|10=108|8=FIX.4.4|9=59|35=0|34=64|49=CLIENT1|52=20170113-08:55:05.961|56=EXECUTOR|10=120|8=FIX.4.4|9=59|35=0|34=65|49=CLIENT1|52=20170113-08:55:36.383|56=EXECUTOR|10=123|8=FIX.4.4|9=59|35=0|34=66|49=CLIENT1|52=20170113-08:56:06.459|56=EXECUTOR|10=126|8=FIX.4.4|9=59|35=0|34=67|49=CLIENT1|52=20170113-08:56:36.635|56=EXECUTOR|10=126|8=FIX.4.4|9=59|35=0|34=68|49=CLIENT1|52=20170113-08:57:07.501|56=EXECUTOR|10=118|