8=FIX.4.4|9=76|35=A|34=1|49=CLIENT1|52=20170110-07:02:05.252|56=EXECUTOR|98=0|108=30|141=Y|10=130|8=FIX.4.4|9=128|35=D|34=2|49=CLIENT1|52=20170110-07:02:06.838|56=EXECUTOR|11=MFM01:02:06.8260429|38=1|40=1|54=1|55=MFM|60=20170110-01:02:06.826|10=008|8=FIX.4.4|9=128|35=D|34=3|49=CLIENT1|52=20170110-07:02:08.760|56=EXECUTOR|11=MFM01:02:08.7506370|38=1|40=1|54=1|55=MFM|60=20170110-01:02:08.750|10=002|8=FIX.4.4|9=128|35=D|34=4|49=CLIENT1|52=20170110-07:02:09.567|56=EXECUTOR|11=MFM01:02:09.5626138|38=1|40=1|54=1|55=MFM|60=20170110-01:02:09.562|10=015|8=FIX.4.4|9=128|35=D|34=5|49=CLIENT1|52=20170110-07:02:10.446|56=EXECUTOR|11=MFM01:02:10.4225271|38=1|40=1|54=1|55=MFM|60=20170110-01:02:10.423|10=232|8=FIX.4.4|9=128|35=D|34=6|49=CLIENT1|52=20170110-07:02:11.316|56=EXECUTOR|11=MFM01:02:11.3105632|38=1|40=1|54=1|55=MFM|60=20170110-01:02:11.310|10=224|8=FIX.4.4|9=128|35=D|34=7|49=CLIENT1|52=20170110-07:02:12.078|56=EXECUTOR|11=MFM01:02:12.0725794|38=1|40=1|54=1|55=MFM|60=20170110-01:02:12.073|10=253|8=FIX.4.4|9=128|35=D|34=8|49=CLIENT1|52=20170110-07:02:12.818|56=EXECUTOR|11=MFM01:02:12.8120892|38=1|40=1|54=1|55=MFM|60=20170110-01:02:12.812|10=253|8=FIX.4.4|9=128|35=D|34=9|49=CLIENT1|52=20170110-07:02:13.740|56=EXECUTOR|11=MFM01:02:13.7318526|38=1|40=1|54=1|55=MFM|60=20170110-01:02:13.731|10=253|8=FIX.4.4|9=129|35=D|34=10|49=CLIENT1|52=20170110-07:02:14.567|56=EXECUTOR|11=MFM01:02:14.5617138|38=1|40=1|54=1|55=MFM|60=20170110-01:02:14.561|10=048|8=FIX.4.4|9=129|35=D|34=11|49=CLIENT1|52=20170110-07:02:15.377|56=EXECUTOR|11=MFM01:02:15.3726108|38=1|40=1|54=1|55=MFM|60=20170110-01:02:15.372|10=047|8=FIX.4.4|9=129|35=D|34=12|49=CLIENT1|52=20170110-07:02:16.255|56=EXECUTOR|11=MFM01:02:16.2360182|38=1|40=1|54=1|55=MFM|60=20170110-01:02:16.236|10=040|8=FIX.4.4|9=129|35=D|34=13|49=CLIENT1|52=20170110-07:02:17.213|56=EXECUTOR|11=MFM01:02:17.1894600|38=1|40=1|54=1|55=MFM|60=20170110-01:02:17.189|10=051|8=FIX.4.4|9=129|35=D|34=14|49=CLIENT1|52=20170110-07:02:17.972|56=EXECUTOR|11=MFM01:02:17.9674710|38=1|40=1|54=1|55=MFM|60=20170110-01:02:17.967|10=074|8=FIX.4.4|9=129|35=D|34=15|49=CLIENT1|52=20170110-07:02:19.851|56=EXECUTOR|11=MFM01:02:19.8456290|38=1|40=1|54=1|55=MFM|60=20170110-01:02:19.845|10=072|8=FIX.4.4|9=129|35=D|34=16|49=CLIENT1|52=20170110-07:02:21.861|56=EXECUTOR|11=MFM01:02:21.8438624|38=1|40=1|54=1|55=MFM|60=20170110-01:02:21.843|10=052|