8=FIX.4.4|9=76|35=A|34=1|49=CLIENT2|52=20170109-18:56:34.327|56=EXECUTOR|98=0|108=30|141=Y|10=155|